:1000000030C0000049C00000F3C0000068C3000019
:100010003AC3000041C000003FC000003DC00000E6
:100020003BC0000059C1000037C0000035C00000CF
:1000300033C0000031C000002FC000002DC0000000
:100040002BC0000029C0000027C0000025C0000010
:1000500023C000003B043F04430447044E045504FE
:100060005C0411241FBECFE5D4E0DEBFCDBF10E09D
:10007000A0E6B0E0EEE1F0E102C005900D92A436FA
:10008000B107D9F720E0A4E6B0E001C01D92AF3679
:10009000B207E1F75AD1C1C7B3CF982F907F9BBB6E
:1000A00098B39D7F98BB98B3986098BBE1EEF4E05D
:1000B0003197F1F700C0000098B3977F98BBE1EE4D
:1000C000F4E03197F1F700C00000F0E18F9FC0012C
:1000D00011248BBB88B3886088BB81EE94E00197C4
:1000E000F1F700C0000088B3877F88BBE1EEF4E041
:1000F0003197F1F700C00000089580EF8ABB87B305
:100100008E6087BB80E28BBB88B3886088BB81EE42
:1001100094E00197F1F700C0000088B3877F88BBA7
:1001200081EE94E00197F1F700C0000088E2B5DFAE
:1001300081EE94E00197F1F700C000008FE0ADDFA1
:1001400081EE94E00197F1F700C0000080E8A5CFB0
:1001500008959FEF899F90011124A3E8BDE210D775
:1001600096958795929582958F7089279F7089279C
:1001700088C20895409160005091610060916200D2
:1001800070916300DB01CA010497A109B1098D38A0
:100190009140A105B10528F4342F252F862F972FE4
:1001A00000C0632F722F089585B7846085BF8BB719
:1001B00080688BBF089584B3816084BB81B3877FDF
:1001C00081BB82B3886082BBEFDF2CC2089580912F
:1001D000690081110CC085B3816085BB85E08A957B
:1001E000F1F785B38E7F85BB81E080936900089528
:1001F0001F920F920FB60F9211242F933F934F939C
:100200005F936F937F938F939F93AF93BF93EF937E
:10021000FF9380916900813009F04DC080916800A2
:1002200081110DC012BE81E08093680010926400BD
:100230001092650010926600109267003CC0809199
:10024000640090916500A0916600B0916700BA2F9C
:10025000A92F982F882722B7BC01CD01620F711DED
:10026000811D911D2AE330E040E050E061D62093EB
:100270006000309361004093620050936300DA01A4
:10028000C9010497A109B1098D389140A105B105B3
:1002900040F0109260001092610010926200109283
:1002A0006300109264001092650010926600109234
:1002B000670010926800FF91EF91BF91AF919F91FD
:1002C0008F917F916F915F914F913F912F910F90FF
:1002D0000FBE0F901F9018951F920F920FB60F929E
:1002E00011242F938F939F93AF93BF9380916400BA
:1002F00090916500A0916600B09167000196A11DE4
:10030000B11D8093640090936500A0936600B09344
:1003100067008B3D9240A105B10568F012BE1092B6
:1003200069001092680010926400109265001092AB
:10033000660010926700BF91AF919F918F912F91AE
:100340000F900FBE0F901F901895CF93DF93CDB7EE
:10035000DEB7A0970FB6F894DEBF0FBECDBF41E069
:1003600060E081E0FFD01F921F9282E18F9380ECCA
:100370008F93AA24A394C12C0F2EF3E0EF2EF02D1F
:1003800000E020E040E063E0CE01469619D341E072
:1003900067E083E0E7D020E042E061E082E04AD11C
:1003A000ACDE09DF789483EC99E00197F1F700C0A7
:1003B00000000F900F900F900F9010E062C007DFC9
:1003C00099249394910E812FC4DED4DE6B017C01BD
:1003D0009BE0C916D104E104F10428F441E060E097
:1003E00081E0FCD004C040E060E081E0F7D0D701BC
:1003F000C6010497A109B1098D389140A105B10545
:1004000018F0C12CD12C76014AE0BE01605F7F4F0D
:10041000892D90E0CFD54AE0CE0101965C01BC0168
:10042000C601C8D5F50101900020E9F7319780E2B7
:1004300090E091838083BE01605F7F4FC501AFD59F
:10044000CE88DF88E88CF98C0A8D1B8D2C8D3D8D34
:100450004E8D5F8D68A1C5012FD3CE88DF88E88CD3
:10046000F98C0A8D1B8D2C8D3D8D4E8D5F8D68A175
:100470008AE0F0D28BEA9DE00197F1F700C000001E
:10048000192D143B09F09BCF53C0A1DE99249A94F7
:10049000910E812F5EDE6EDE6B017C01DC01CB01F3
:1004A0000497A109B1098D389140A105B10518F053
:1004B000C12CD12C76014AE0BE01605F7F4F892DAF
:1004C00090E078D54AE0CE0101965C01BC01C601FE
:1004D00071D5F50101900020E9F7319780E290E0B5
:1004E00091838083BE01605F7F4FC50158D5CE8860
:1004F000DF88E88CF98C0A8D1B8D2C8D3D8D4E8DFF
:100500005F8D68A1C501D8D2CE88DF88E88CF98CD0
:100510000A8D1B8D2C8D3D8D4E8D5F8D68A18AE0DF
:1005200099D28BEA9DE00197F1F700C00000192DE8
:100530001111ABCFA6CF813091F028F0823031F08D
:10054000833039F009C089E390E0089583E390E0B7
:10055000089580E390E0089580E090E0089586E3B8
:1005600090E00895CF93DF93D62FC42FE4DFFC01F2
:10057000C1110FC081E090E002C0880F991FDA9589
:10058000E2F78095918198239183928189238283D8
:1005900022C0C13079F481E090E002C0880F991F39
:1005A000DA95E2F79181982B918380959281892346
:1005B000828311C0C23079F481E090E002C0880FDC
:1005C000991FDA95E2F7982F9095218192239183D4
:1005D0009281892B8283DF91CF910895CF93DF930E
:1005E000D62FC42FA8DFC1110DC021E030E002C01A
:1005F000220F331FDA95E2F72095FC013281232385
:1006000022830DC0C13059F421E030E002C0220F36
:10061000331FDA95E2F7FC013281232B2283DF912D
:10062000CF91089513BE81E083BF12BE89B7816068
:1006300089BF089515BC24BD13BC99B79C7F99BF91
:10064000A62FA170B0E00024B695A7950794B695A3
:10065000A7950794BA2FA02D61FBEE27E0F9F0E0F3
:10066000EE0FFF1FEE0FFF1FEE0FFF1F90E1499FE0
:10067000A0011124EA2B4E2B482B45BD80936A0024
:10068000089583BD08951F920F920FB60F92112403
:100690002F933F934F935F936F937F938F939F938A
:1006A000AF93BF93EF93FF93E0916B00F0916C00D9
:1006B000309709F0099588B7816088BFFF91EF9165
:1006C000BF91AF919F918F917F916F915F914F916A
:1006D0003F912F910F900FBE0F901F9018951F9272
:1006E0000F920FB60F9211242F933F934F935F9366
:1006F0006F937F938F939F93AF93BF93EF93FF93EA
:10070000E0916D00F0916E00309709F0099588B77F
:10071000826088BFFF91EF91BF91AF919F918F91C0
:100720007F916F915F914F913F912F910F900FBEED
:100730000F901F901895823041F0833051F0813036
:1007400071F48AB188608AB908958AB180618AB9E2
:1007500008958AB188608AB98AB180618AB908959A
:10076000CF93C22F813029F120F0823009F441C0AB
:1007700067C080B58F7B80BD8BB18D7F8BB9CB017E
:10078000BA01E5D220E030E040E851E46ED39B01AD
:10079000AC0160E074E284E799E445D220E030E007
:1007A00040E85FE3DBD120E030E040E05FE3D7D119
:1007B0004AC080B58F7B80BD8BB182608BB9CB0185
:1007C000BA01C5D220E030E040E051E44ED39B01B5
:1007D000AC0160E074E284E799E425D220E030E0E7
:1007E00040E85FE3BBD120E030E040E05FE3B7D119
:1007F0002AC080B5806480BDCB01BA01A8D29B011C
:10080000AC01ADD19B01AC0160E074E284E799E4F6
:100810000AD220E030E040E85FE3A0D120E030E001
:1008200040E05FE39CD1CC2319F0C13029F00BC02C
:1008300020B52E7F20BD07C020B5216020BD03C09C
:1008400060E070E0CB01CF910895882319F08130EA
:1008500029F008958BB18E7F8BB908958BB181609B
:100860008BB9089590E0FC013197E730F10568F508
:10087000E65DFF4F7FC38AB180688AB908958AB167
:1008800080648AB908958AB180628AB908958AB16C
:1008900080688AB98AB180648AB908958AB180640F
:1008A0008AB98AB180628AB908958AB180688AB9A2
:1008B0008AB180628AB908958AB180688AB98AB19A
:1008C00080648AB98AB180628AB908958230C9F099
:1008D00028F4882341F0813081F008958330A9F015
:1008E0008430D1F008958AB18B7F8AB980B58B7F2F
:1008F00080BD80B58D7F80BD089580B5826080BD4C
:10090000089580B5846080BD089580B5826080BD03
:1009100080B5846080BD089580B5826080BD80B55B
:10092000846080BD8AB184608AB90895823001F103
:1009300028F4882349F0813089F00895843061F1EA
:1009400008F1853099F1089580B58F7D80BD80B51F
:100950008F7E80BD80B5877F80BD089580B58F7DF7
:1009600080BD80B58F7E80BD80B5886080BD0895D4
:1009700080B5806280BD80B58F7E80BD80B5877F69
:1009800080BD089580B5806280BD80B58F7E80BDBA
:1009900080B5886080BD089580B5806280BD80B5D7
:1009A000806180BD80B5877F80BD089580B58062FD
:1009B00080BD80B5806180BD80B5886080BD0895B0
:1009C0004F925F926F927F928F929F92AF92CF924F
:1009D000EF92FF920F931F93CF93DF93CDB7DEB7C4
:1009E0004C01F62E842F122F2A2D49895A896B89A2
:1009F0007C891BB81AB810BCF401F0828183128381
:100A00000383E482C582A682478350876187728709
:100A1000A7DE2B013C018F2D8EDE812F16DF802F6C
:100A200021DF8E2D53DF8C2D81DFC301B20163D115
:100A300070BD69B9C401DF91CF911F910F91FF90F3
:100A4000EF90CF90AF909F908F907F906F905F903E
:100A50004F900895CF92DF92EF92FF920F931F93E2
:100A6000CF93DF93CDB7DEB72B970FB6F894DEBFE9
:100A70000FBECDBFC982DA82EB82FC820D831E835A
:100A80002F83388749875A876B875D9BFECF9D816F
:100A9000943011F49AB19AB98CB92B960FB6F89498
:100AA000DEBF0FBECDBFDF91CF911F910F91FF90A1
:100AB000EF90DF90CF9008958F929F92BF92CF9248
:100AC000DF92EF92FF920F931F93CF93DF93CDB7F7
:100AD000DEB72B970FB6F894DEBF0FBECDBF4C012B
:100AE000C982DA82EB82FC820D831E832F833887D2
:100AF00049875A876B87B12C0DC0C980DA80EB809B
:100B0000FC800D811E812F81388549855A856B8532
:100B1000A1DFB394F401EB0DF11D80818111EDCFC4
:100B2000C980DA80EB80FC800D811E812F813885A1
:100B300049855A856B858EDF2B960FB6F894DEBFFC
:100B40000FBECDBFDF91CF911F910F91FF90EF901E
:100B5000DF90CF90BF909F908F9008955058BB2703
:100B6000AA270ED048C139D130F03ED120F031F45F
:100B70009F3F11F41EF42EC10EF4E095E7FB24C153
:100B8000E92F4AD180F3BA176207730784079507E4
:100B900018F071F49EF562C10EF4E0950B2EBA2F99
:100BA000A02D0B01B90190010C01CA01A001112473
:100BB000FF27591B99F0593F50F4503E68F11A161F
:100BC000F040A22F232F342F4427585FF3CF4695B0
:100BD00037952795A795F0405395C9F77EF41F16D2
:100BE000BA0B620B730B840BBAF09150A1F0FF0F9C
:100BF000BB1F661F771F881FC2F70EC0BA0F621F88
:100C0000731F841F48F4879577956795B795F79577
:100C10009E3F08F0B3CF9395880F08F09927EE0F09
:100C20009795879508950CD0E6C0DED040F0D5D0DA
:100C300030F021F45F3F19F0C7C0511110C1CAC094
:100C4000EBD098F39923C9F35523B1F3951B550BBA
:100C5000BB27AA2762177307840738F09F5F5F4F8F
:100C6000220F331F441FAA1FA9F333D00E2E3AF0D0
:100C7000E0E830D091505040E695001CCAF729D0EA
:100C8000FE2F27D0660F771F881FBB1F2617370739
:100C90004807AB07B0E809F0BB0B802DBF01FF2769
:100CA00093585F4F2AF09E3F510568F08DC0D7C022
:100CB0005F3FECF3983EDCF3869577956795B795A3
:100CC000F7959F5FC9F7880F911D9695879597F9BE
:100CD0000895E1E0660F771F881FBB1F6217730737
:100CE0008407BA0720F0621B730B840BBA0BEE1F4C
:100CF00088F7E095089598D088F09F5790F0B92F25
:100D00009927B751A0F0D1F0660F771F881F991F60
:100D10001AF0BA95C9F712C0B13081F09FD0B1E096
:100D200008959CC0672F782F8827B85F39F0B93FA6
:100D3000CCF3869577956795B395D9F73EF4909562
:100D40008095709561957F4F8F4F9F4F0895E894E0
:100D500009C097FB3EF490958095709561957F4F03
:100D60008F4F9F4F9923A9F0F92F96E9BB279395B1
:100D7000F695879577956795B795F111F8CFFAF4C1
:100D8000BB0F11F460FF1BC06F5F7F4F8F4F9F4FF2
:100D900016C0882311F096E911C0772321F09EE850
:100DA000872F762F05C0662371F096E8862F70E0B6
:100DB00060E02AF09A95660F771F881FDAF7880F90
:100DC0009695879597F9089597F99F6780E870E061
:100DD00060E008959FEF80EC089500240A941616B1
:100DE000170618060906089500240A941216130619
:100DF000140605060895092E0394000C11F48823A7
:100E000052F0BB0F40F4BF2B11F460FF04C06F5FC2
:100E10007F4F8F4F9F4F089557FD9058440F551F98
:100E200059F05F3F71F04795880F97FB991F61F06C
:100E30009F3F79F087950895121613061406551FE3
:100E4000F2CF4695F1DF08C0161617061806991F4F
:100E5000F1CF86957105610508940895E894BB2744
:100E600066277727CB0197F908950BD0C4CFB5DF5C
:100E700028F0BADF18F0952309F0A6CFABCF1124E4
:100E8000EECFCADFA0F3959FD1F3950F50E0551F29
:100E9000629FF001729FBB27F00DB11D639FAA27CF
:100EA000F00DB11DAA1F649F6627B00DA11D661F1E
:100EB000829F2227B00DA11D621F739FB00DA11D3F
:100EC000621F839FA00D611D221F749F3327A00DF9
:100ED000611D231F849F600D211D822F762F6A2F95
:100EE00011249F5750408AF0E1F088234AF0EE0F1A
:100EF000FF1FBB1F661F771F881F91505040A9F727
:100F00009E3F510570F060CFAACF5F3FECF3983E53
:100F1000DCF3869577956795B795F795E7959F5F8D
:100F2000C1F7FE2B880F911D9695879597F9089527
:100F3000A1E21A2EAA1BBB1BFD010DC0AA1FBB1FDD
:100F4000EE1FFF1FA217B307E407F50720F0A21B4F
:100F5000B30BE40BF50B661F771F881F991F1A94BC
:100F600069F760957095809590959B01AC01BD01E6
:100F7000CF010895EE0FFF1F0590F491E02D099425
:100F8000A29FB001B39FC001A39F700D811D1124CA
:100F9000911DB29F700D811D1124911D0895FB01BB
:100FA000DC010D900020E9F7119701900D920020CF
:100FB000E1F70895BB274A3031F4992322F4BDE2CA
:100FC000909581959F4F01C0BB27FB015527AA270C
:100FD000880F991FAA1FA41710F0A41B83955051C6
:100FE000B9F7A05DAA3308F0A95DA193009779F73E
:100FF000B111B1931192CB0100C0DC01FC01672F4C
:1010000071917723E1F7329704C07C916D937083DF
:0E1010006291AE17BF07C8F30895F894FFCFA2
:04101E0004000000CA
:00000001FF
